S01D00005044435F5044435F554152545F4558414D504C45322E73726563C2
S214400000883A002025054000210540002105400093
S2144000102105400021054000210540000000000069
S2144000200000000000000000000000002105400025
S2144000302105400000000000210540002105400049
S21440004021054000210540002105400021054000D3
S2144000502105400021054000210540000000000029
S214400060910B40002105400021054000310340002F
S214400070450340000000000021054000000000004D
S214400080210540000000000000000000210540005F
S2144000902105400021054000210540002105400083
S2144000A0210540002105400000000000000000003F
S2144000B0000000002105400000000000210540002F
S2144000C010B5054C237833B9044B13B10448AFF34D
S2144000D000800123237010BDDC08002000000000D3
S2144000E06C1B400008B5064B1BB106480649AFF3EB
S2144000F000800648036813B1054B03B1984708BD16
S214400100000000006C1B4000E00800206C1B400014
S2144001100000000010B50E480E4B984710200E4BBE
S21440012098470E4CA0470028FCD00D4B98470D4AE8
S2144001300D4B9A620D4CA0470028FCD010200C4B6B
S21440014098470C4B98470248024B984710BD00BF53
S21440015000E1F505D1064000BD034000090440001B
S21440016019044000013F182000040E4029044000B6
S21440017059034000C10540002DE9F0410C46904629
S21440018060B9002A0EDD8F18094E0A4D30682146A8
S2144001902B6898470134BC42F8D106E04FF0FF3058
S2144001A0BDE8F0810020BDE8F0814046BDE8F08122
S2144001B0640A00205C0A00202DE9F0410E461546F0
S2144001C0013802280FD892B10024DFF83C800D4F4A
S2144001D0D8F80000315D3B68984700280ADB0134B8
S2144001E0A542F5D10AE04FF0FF30BDE8F08100208F
S2144001F0BDE8F0814FF0FF30BDE8F0812046BDE815
S214400200F08100BF600A0020640A002010B54FF459
S21440021000421D4B5A600B201C4CA0470C20A047A8
S2144002201B4B4FF480121A61C3F8A0201A634FF498
S21440023000221A61C3F8A0201A634FF080425A6128
S214400240C3F8A0205A66C3F890205A655A62C3F88D
S21440025080201A6F22F080421A675A6F22F080423E
S2144002605A674FF4C0621A66C3F890205A655A62BD
S214400270C3F88020196F21F4C0611967596F21F4C3
S214400280C06159675A6010BD50140E403904400092
S214400290000E0E400B4619B1096881605B68C3606A
S2144002A01AB1136883615368C36170470B4619B12E
S2144002B0096801605B6843601AB11368036153685C
S2144002C04361704721F0FE01C905C90D01627047C0
S2144002D0C06C7047806C70472DE9F04104460E466E
S2144002E0104B9847054620460F4B9847054017D079
S2144002F00E4F07F10C046C3754F80C3CB3420AD14D
S21440030054F8081C294206D023683046984754F8CB
S214400310083C25EA0305BC4202D01034002DEBD140
S214400320BDE8F081D1024000D5024000F808002028
S21440033008B502480B21024B984708BD000E0E40F8
S214400340D902400008B502480C21024B984708BD28
S21440035000100E40D9024000174B1A6B22F0700274
S214400360104318639B6E13F0080F09D14FF40063D7
S214400370114901E0013B19D08A6E12F0080FF9D0FE
S2144003800D4B1A6B22F0030242F002021A63986E7B
S21440039010F008000CD14FF40063074901E0013B20
S2144003A008D08A6E12F0080FF9D0704701207047C7
S2144003B0002070470120704700040E4011490A6A29
S2144003C042F45C1242F008020A620A46936E13F444
S2144003D0003FFBD00B4A136A23F45C1323F07003F0
S2144003E043F45C1303431362936E13F4003FFBD055
S2144003F0044A136A23F09B7323F4803343F45C135C
S2144004001362704700040E40024B986E00F4803032
S214400410704700BF00040E404FF00052014B9A62F6
S214400420704700BF00040E40024B986E00F002007A
S214400430704700BF00040E401F280DD8084B9A692D
S214400440012383401A40934208D0012303FA00F068
S214400450034B18610020704701207047002070470A
S21440046000040E4010B4AC2303600A684B68B2FB2D
S214400470F3F31B095C1E4FF6FE7294420AD80362E1
S2144004808B68436040F20223C0F82031502303605B
S214400490002000E001205DF8044B70478160704703
S2144004A040697047436913F0020F1ABFC1610020CC
S2144004B001207047436913F0010F1DBF83690B701D
S2144004C000200120704700BF064B984208D0A3F595
S2144004D08073054A054988420CBF10461846704747
S2144004E00348704700080E40004104400040044066
S2144004F000090E40436913F0020F1DBFC1F3080107
S214400500C161002001207047436913F0010F05D0F8
S2144005108369C3F308030B600020704701207047CF
S214400520FEE700BF10B5194B194A9A4203D0194B43
S214400530164A9A4204D3184B184A9A420FD31AE0E6
S214400540174B184CE41A24F00304043400230F48D5
S2144005500F495A581A500433A342FAD1EBE7124BCC
S2144005601249C91A21F003011A1D1144002243F80A
S214400570042F8B42FBD10E4B0E4A22F07F029A602C
S2144005800D4B98470D4B9847FEE700BF00000020F4
S2144005906C1B4000DC080020840A0020DC08002099
S2144005A004000020DF080020D80800207F0A002032
S2144005B000ED00E000004000190C4000450A4000F5
S2144005C03C4B1B6B03F00303012B0FD013B1022BE4
S2144005D029D057E0384B5B6913F0800F14BF4FF4B7
S2144005E000424FF4FA42354B1A604BE0314B1B6ADF
S2144005F013F0807F03D0324A304B1A6042E0314AD3
S2144006002E4B1A602B4B1B6A03F07003102B02D044
S214400610202B04D036E02C4A284B1A6032E0284A79
S214400620264B1A602EE0234B1B6A13F0807F03D0C4
S214400630234A224B1A6012E0224A204B1A601D4B76
S2144006401B6A03F07003102B02D0202B04D006E068
S2144006501D4A1A4B1A6002E0194A184B1A60154B8D
S2144006601B6B03F00303022B0CD1124B986A996A5A
S214400670124BC0F30A401A6800FB0222C9B2B2FB12
S214400680F1F21A600B4B1B6B03F07003702B07D113
S2144006900A4B1A680D49A1FB020252081A607047BD
S2144006A0044B196B054BC1F302111A68CA401A6015
S2144006B0704700BF00040E4010140E400C0000208F
S2144006C0001BB70000093D0000127A00ABAAAAAA98
S2144006D00F4B984204D84FF080620E4B1A6070471A
S2144006E00D4B984203D80D4A0A4B1A6070470C4B84
S2144006F0984203D80B4A074B1A6070470A4B9842F9
S21440070094BF0A4A4FF00422024B1A60704700BF5B
S214400710FF2C3101000A0E40FF596202000100041E
S214400720FF86930300020004FFB3C40400030004E2
S214400730094B1B6813B9094A074B1A60064B1B68DE
S2144007401A180749914204DB1046034A10601846BF
S21440075070474FF0FF30704768090020883A002005
S214400760FC3F01204FF0FF30704700BF002070472D
S214400770F0B583B005460C46002301931C4B9842C7
S21440078007D11F461B4E38462146B0470028FAD1AF
S21440079015E0194B984207D11F46164E384621465B
S2144007A0B0470028FAD115E0144B984207D11E46B0
S2144007B0104D30462146A8470028FAD116E0104B87
S2144007C09D4207D11E460B4D30462146A84700287D
S2144007D0FAD10BE00B4B9D4208D11E460A4D3046DF
S2144007E001A9A8470028FAD1019B237003B0F0BDA9
S2144007F000060E40B504400000080E40004004408D
S21440080000800440004002400905400070B50C4698
S214400810214B984207D11E46204D30462146A847D8
S2144008200028FAD12BE01E4B984207D11E461B4D9E
S21440083030462146A8470028FAD122E0194B984274
S21440084007D11E46154D30462146A8470028FAD106
S21440085019E0154B984207D11E46104D30462146AA
S214400860A8470028FAD110E0104B98420FD11E46F8
S2144008700F4D30462146A8470028FAD109E001200E
S21440088070BD012070BD012070BD012070BD0020EC
S21440089070BD012070BD00BF00060E40A50440009C
S2144008A000080E40004004400080044000400240E3
S2144008B0F5044000094B1B78DBB20D2B0AD0084BE1
S2144008C01B780A2B09D10022054B1A700122054BD2
S2144008D01A7070470122044B1A707047A409002012
S2144008E0710A0020A50900206C09002008B54A4B73
S2144008F098474A4B1B7813F0FF0F08D10222474B0C
S2144009001A70474B474A1A6010225A6008BD434B3C
S2144009101B78DBB2022B10D1434B1B7813F0FF0F32
S21440092078D00022404B1A7004223C4B1A703C4B45
S2144009303E4A1A6031225A6008BD384B1B78DBB2FB
S214400940042B10D1384B1B7813F0FF0F62D00022D7
S214400950354B1A700622314B1A70314B344A1A60A6
S21440096009225A6008BD2D4B1B78DBB2062B10D1EE
S2144009702D4B1B7813F0FF0F4CD000222A4B1A70D9
S2144009800822264B1A70264B2A4A1A6013225A60AF
S21440099008BD224B1B78DBB2082B10D1224B1B78AC
S2144009A013F0FF0F36D000221F4B1A700A221B4B43
S2144009B01A701B4B204A1A600F225A6008BD174B0C
S2144009C01B78DBB20A2B10D1174B1B7813F0FF0FA6
S2144009D020D00022144B1A700C22104B1A70104B69
S2144009E0164A1A6010225A6008BD0C4B1B78DBB2C0
S2144009F00C2B0FD10C4B1B7813F0FF0F0AD00022A4
S214400A00094B1A700D22054B1A70054B0C4A1A609A
S214400A1006225A6008BD00BFB5084000A409002061
S214400A20680A002010000020A50900205000002081
S214400A3034000020200000204000002084000020D9
S214400A4094000020F0B585B02E4B98472E4B984723
S214400A5008202E4DA8472E4C2E4B1C602E4A2F4B5E
S214400A601A602F4A2F4B1A602F4B01934FF4E133F5
S214400A7002934FF4006303930820A847204601A939
S214400A802A4B98472A4E336898680021294DA84734
S214400A90336858680021A8472046274B9847274D7B
S214400AA028602749274B0B6032234B60264E274B46
S214400AB033607D2373600022254B98472868314673
S214400AC00022244B9847286840F20111224B984751
S214400AD020464FF4C051214B98474FF48072204B2C
S214400AE01A60204F204E214D214C2846B847B0472B
S214400AF0237813F0FF0FF8D0114B1E4A1A600922D4
S214400B005A60F2E7150140000D02400039044000EB
S214400B1000060E40640A00200D084000600A0020CF
S214400B20710740005C0A002000E1F50565044000BE
S214400B30C8040020FD0C4000C90440007C0A002088
S214400B40680A002070090020740A0020A8090020C6
S214400B5095024000AD024000C50240009D044000A2
S214400B6000E100E001000020ED08400093FBD900C2
S214400B706C090020341B400008B5034800217D2244
S214400B80024B984708BD00BFA8090020690C4000EA
S214400B9008B51548154B984710F4805F17D0144B8E
S214400BA0DB6B13F4801F4FF48012114B14BF5A6353
S214400BB01A630D480F49104B9847104B1870104B4E
S214400BC09847104B186810490022104B9847064823
S214400BD0064B984710F4006F05D00A4B18680C492E
S214400BE000220C4B984708BD00060E40A10440006A
S214400BF0000E0E40710A0020B5044000700A002026
S214400C00790B40007C0A0020740A0020AD024000A8
S214400C10680A00209502400070B50F4E0F4D761BB7
S214400C20B61007D0043D0024013455F8043F9847D9
S214400C30A642F9D10A4E0B4D761B00F085FFB61042
S214400C4008D0043D0024013455F8043F9847A64296
S214400C50F9D170BD70BD00BF541B4000541B40000E
S214400C605C1B4000541B4000F0B4840743D0541E25
S214400C70002A3ED0CDB2034603E0621E002C38D098
S214400C80144603F8015B9A07F7D1032C2AD9CDB254
S214400C9045EA05250F2C45EA054515D9A4F1100768
S214400CA03F0903F1100606EB07161A461560556015
S214400CB09560D5601032B242F8D104F00F04013787
S214400CC0032C03EB07130DD91E462246043A032A8B
S214400CD046F8045BFAD8221F22F00302043213447B
S214400CE004F003042CB1C9B21C4403F8011BA34210
S214400CF0FBD1F0BC704714460346C6E700290CBF3C
S214400D00022200224FF4806300F000B82DE9F04143
S214400D103C4C25688846044616461F4615B1AB6BC4
S214400D20002B4FD0022E30D8002F2EDB28462146EF
S214400D3000F026F9A38900226260A2611A0628D430
S214400D4023F083039BB2022EA3812DD0B8F1000F6F
S214400D503CD0012E13D09BB203F008002A4AEA6327
S214400D6080B2C4F80080C4F81080676178B113F090
S214400D70030F18BF0027A7600020BDE8F08143F0AE
S214400D8001037A42A381A261E5E74FF0FF30BDE858
S214400D90F0812846216900F0F3F9A38923F0830304
S214400DA09BB2022EA381D1D1002004F1430243F02E
S214400DB0020300250121A381A560226022616161B2
S214400DC0BDE8F081284600F0F7F8ABE7002F08BFF3
S214400DD04FF48067384600F0C7FA804628B1A389AA
S214400DE043F080039BB2A381B3E74FF4806000F0EA
S214400DF0BBFA804618B9A3894FF0FF30D5E74FF4C9
S214400E008067ECE7C8040020AD0F4000024B13B1EA
S214400E10024800F005B8704700000000B5104000DA
S214400E20014600200246034600F0AEBD8B899AB2CA
S214400E302DE9F0410D46110780463CD46A6843F4DC
S214400E400063002AAB8159DDAC6A002C4BD09BB2C4
S214400E5003F48052002192B2D8F80060C8F800101F
S214400E60002A4FD02A6D5F0705D569682B6B521A4A
S214400E700BB1EB6BD21A4046E9690023A047441CED
S214400E804AD0AA892B692B6022F400639BB20022C9
S214400E906A60DA04AB814CD4296BC8F8006011B3A1
S214400EA005F14003994202D0404600F069F900201F
S214400EB02863BDE8F0812E69AEB12C682E6091079C
S214400EC00CBF6B690023A41BAB600AE03246234686
S214400ED06F6AE9694046B8470028C0EB04040644F8
S214400EE004DD002CF2DC0020BDE8F081AB8943F045
S214400EF04003AB814FF0FF30BDE8F081EA6B002A3B
S214400F00A2DCF0E701234046E969A047431C0246BD
S214400F101ED0AB89AC6AA6E7D8F800305BB9A98981
S214400F206B6021F400639BB22A69AB81DB042A60C4
S214400F30B2D52865B0E71D2B01D0162B19D1AA894A
S214400F402B692B6022F400620023AA816B60A3E722
S214400F50D8F80030002BDCD01D2B07D0162B05D040
S214400F60AB8943F04003AB81BDE8F081C8F8006030
S214400F70B9E7AB8943F04003AB81BDE8F08100BFE1
S214400F8010B5044682B008B1836B53B1B1F90C007A
S214400F9008B902B010BD204602B0BDE81040FFF7C9
S214400FA045BF019100F008F80199EFE7014900F0CC
S214400FB0B5B900BFD51A40002DE9F04F846B83B019
S214400FC00746002C65D145683348F863042303215F
S214400FD007F53B72C7F8E412C7F8E822C7F8E042C4
S214400FE005F15C00AB812C606C60AC606C66EC819B
S214400FF02C616C61AC6121460822FFF735FEBE6865
S214401000DFF898B0DFF898A0DFF89890DFF898807F
S214401010ED6101230922C5F820B0C5F824A0C5F823
S2144010202890C5F82C802146F381B28134607460E4
S214401030B460746634617461B461082206F15C0081
S2144010400193FFF711FEFD68F66112200222C6F8F2
S21440105020B0C6F824A0C6F82890C6F82C802146B2
S214401060A881EA812C606C60AC606C662C616C6117
S214401070AC6105F15C000822FFF7F6FD019BED61CF
S214401080C5F820B0C5F824A0C5F82890C5F82C802F
S214401090BB6303B0BDE8F08FAD0F4000DD184000E5
S2144010A0011940003919400059194000704700BFE7
S2144010B0704700BF38B5094D094C641BA41018BFD3
S2144010C005EB840505D0013C55F8043D9847002CB7
S2144010D0F9D1BDE8384000F041BD00BF681B400074
S2144010E06C1B4000F8B5234D0F46044600F0E0FB6D
S2144010F0AB685E6826F00306F11B01F6EF7121F43B
S2144011007F6121F00F01A1F58057B7F5805F07DBBF
S2144011102046002100F0D0FBAB683344984204D010
S214401120204600F0C7FB0020F8BD2046794200F07C
S214401130C3FB01300DD0104BAA681968F61B46F069
S21440114001062046C91B5660196000F0B3FB01201B
S214401150F8BD2046002100F0AFFBAB68C21A0F2A4C
S214401160DEDD064D04492D6842F00102401B5A6000
S2144011700860D5E7CC040020340A0020D8080020B8
S2144011802DE9F0410D460646002955D000F090FB6B
S21440119055F8041CDFF874C121F00103A5F10804DA
S2144011A0E218DCF808005768904227F0030769D039
S2144011B011F00101576032D00021D0194068C007B5
S2144011C006D43B44906800294ED0D268C2609060F6
S2144011D043F001026260E350E1B9B3F5007F2DD3DE
S2144011E05A0A042A6AD89809383041000CEB810C18
S2144011F04649DCF80820624566D0516821F0030174
S2144012008B4202D292689445F7D1D368E360A260DD
S2144012109C60D4603046BDE8F04100F04BBB55F8CA
S214401220085C641B0CF10808A06840452B4443D07A
S214401230E568C560A860C0E7BDE8F081DB080CEB58
S214401240C3020125DCF804009168A1609B1005FAF2
S21440125003F31843E260CCF8040094603046CC6058
S214401260BDE8F04100F026BB294DA842ADD143F081
S2144012700102CCF81440CCF81040E060A0606260F8
S214401280E350C7E71F44CB0707D455F8083CE41A99
S2144012901F44A268E368D3609A601E4B1B6847F001
S2144012A001029F426260CCF80840B3D31A4B3046E6
S2144012B01968FFF717FFADE701217EE7142A0CD81F
S2144012C002F15B00410091E74B688010012505FA6A
S2144012D000F003434B60134698E7542A03D8180B94
S2144012E06E30410082E7B2F5AA7F03D8D80B77303C
S2144012F041007BE740F254518A4203D8980C7C3038
S214401300410073E7FC217E2070E700BFCC0400203C
S214401310D4040020D4080020300A00202DE9F041F3
S21440132010F5387788461AD000267D68BC68013D9F
S2144013300FD4A389012B05F1FF3506D9B4F90E3039
S2144013400133204601D0C04706436B1C04F16804B5
S214401350EFD13F68002FE8D13046BDE8F0813E46E9
S2144013603046BDE8F08100BF024B0146186800F0E9
S21440137003B800BFC80400202DE9F04F01F10B056B
S214401380162D83B0064627D935F0070527D4A9423F
S21440139025D8304600F08CFAB5F5FC7F26D2C14FF2
S2144013A04FEAD50C07EBCC03DC689C4200F0D281B8
S2144013B06368E268A16823F00303234430465D680F
S2144013C0CA6045F0010591605D6000F073FA08342C
S2144013D0204603B0BDE8F08F1025A942D9D9002495
S2144013E00C232046336003B0BDE8F08F5FEA552CEF
S2144013F000F08A80BCF1040F00F260814FEA951C31
S2144014000CF1380C4FEA4C01A64F07EB8101CC6833
S214401410A14205D10CE0002B7ADAE468A14207D05D
S214401420626822F00302531B0F2BF4DD0CF1FF3CE5
S2144014300CF1010C9B4B3C6903F1080E744500F01F
S2144014407E81616821F003014A1B0F2A00F3648104
S214401450002AC3F814E0C3F810E06ADAB1F5007F5A
S21440146080F03A81C90803EBC1004FEAA1085A68E8
S2144014708168A1604FF0010909FA08F848EA0202BB
S214401480E0605A608460CC604FEAAC03012098402C
S21440149090425BD8024206D12CF0030C4000024238
S2144014A00CF1040CFAD007EBCC084446E146E3685E
S2144014B09C4207D145E1002A80F25681DB689C4277
S2144014C000F03F81596821F003014A1B0F2AF2DDE4
S2144014D01C46D3F80CC054F8088F591945F001093A
S2144014E042F00105C3F804903046C8F80CC0CCF86A
S2144014F0088079613961C1F80CE0C1F808E04D60B8
S2144015008A5000F0D7F963E77E214FF03F0C7BE727
S2144015102244E3685068A16840F00105CB6030463D
S2144015209960556000F0C6F90834204603B0BDE81F
S214401530F08F214430464B6843F001034B6000F087
S214401540B9F90834204603B0BDE8F08FBC6863683C
S21440155023F00309A94504D3C5EB09030F2B00F379
S2144015609180514B514A19681368013305EB010AC3
S21440157004EB090B00F061810AF5805A0AF10F0A64
S2144015802AF47F6A2AF00F0A30465146019200F04C
S21440159093F9B0F1FF3F8046019A00F00081834501
S2144015A000F2FA80DFF810C1DCF80030C34553443F
S2144015B0CCF8003000F04A8112683C4901321BBF2B
S2144015C0CBEB080B5B44C1F80080CCF8003018F039
S2144015D0070300F01381C3F10802C3F5805390441B
S2144015E00833C244CAF30B0ACAEB030A51463046D4
S2144015F0CDF804C000F060F9431CDDF804C000F0EC
S2144016003581C8EB0002524442F00102DCF800305B
S214401610C7F808805344BC42C8F80420CCF80030D1
S214401620DFF894A015D0B9F10F0F40F2EA80616858
S214401630A9F10C0222F0070201F0010EA1180520C4
S21440164042EA0E0E0F2AC4F804E04860886000F2B2
S2144016501181174ABC6811688B4288BF1360154ACF
S21440166011688B4288BF1360626822F0030295427D
S214401670C5EB020301D80F2B04DC304600F01AF904
S2144016800024A5E6621943F0010345F001056560B4
S2144016903046BA60536000F00DF90834204603B077
S2144016A0BDE8F08FCC040020300A0020D808002087
S2144016B02C0A0020280A0020340A0020BCF1140F0F
S2144016C061D9BCF1540F00F28F804FEA153C0CF103
S2144016D06E0C4FEA4C0197E64B0A042B58D9142B54
S2144016E000F2AE8003F15B02500007EB8000DFF8AB
S2144016F0BC818368834200F08A805A6822F00302E5
S214401700914202D29B689842F7D1D9687A68E160E4
S214401710A3608C60DC60B7E6611942F0010745F0D3
S21440172001056560304659611961C1F80CE0C1F8A1
S21440173008E04F608A50083400F0BCF848E65A6823
S214401740A2E609F1010919F0030F04F108047FF439
S214401750AEAE2DE004F108036469A34208BF0CF165
S214401760020C3FF467AE23E619441C464868DB6823
S21440177054F8082F40F001054D603046D3609A601B
S21440178000F098F824E60CF15B0C4FEA4C013BE67F
S2144017908A0938325000A8E7BC423FF403AFBC6821
S2144017A0626822F0030262E7D8F8008098457BD151
S2144017B01CF0030FA8F108030CF1FF3CF4D17B6842
S2144017C023EA00037B60400098423FF6BFAE002805
S2144017D03FF4BCAE0342CC467FF465AE40000342C5
S2144017E00CF1040CFAD05EE6BCF5AA7F1AD84FEA94
S2144017F0D53C0CF1770C4FEA4C0105E64FF480538C
S214401800EFE60123C8F80430444600222FE7911043
S2144018100120D8F8042000FA01F10A43C8F8042051
S214401820194674E740F254539C451BD84FEA954CF2
S2144018300CF17C0C4FEA4C01E6E50AF1100AA3E6EF
S214401840542B1FD80A0B6E3250004EE7CBF30B01D9
S21440185000297FF4B1AE0AEB0901BA6841F00101F4
S2144018605160F6E6FC214FF07E0CCDE501224FF0AC
S214401870000ACBE604F108013046FFF781FCDAF8AF
S2144018800030E6E6B3F5AA7F03D8CA0B773250009D
S2144018902BE740F25452934203D88A0C7C325000D5
S2144018A023E7FC207E2220E77B688CE7CC040020E0
S2144018B0704700BF704700BF38B5074C0023054649
S2144018C008462360FEF734FF431C00D038BD23682B
S2144018D0002BFBD02B6038BD800A002010B50C468C
S2144018E0B1F90E1000F012F9002803DB236D034413
S2144018F0236510BDA38923F48053A38110BD00BF88
S2144019002DE9F0410C4689891D46CB05164607460B
S21440191006D5B4F90E100022022300F0E3F8A189A0
S21440192021F48051A1813846B4F90E1032462B4638
S214401930BDE8F04100F014B810B50C46B1F90E10F1
S21440194000F0D0F8A389421C0EBF23F4805343F422
S21440195080532065A38110BDB1F90E1000F068B821
S21440196070B5084C06460025084611461A462560BE
S214401970FEF722FC431C00D070BD2368002BFBD032
S214401980336070BD800A0020F0B5274C2668D6F834
S214401990484185B00746002C41D065681F2D1EDDA6
S2144019A0224818B94FF0FF3005B0F0BD4FF4C8706C
S2144019B0039102920193FFF7D7FC0399029A019B89
S2144019C004460028EED0D6F84851256000206060D6
S2144019D00546C6F84841C4F88801C4F88C013FB9AA
S2144019E0AB1C00200135656044F8231005B0F0BDFF
S2144019F004EB85004FF0010CC0F88820D4F88861CD
S214401A000CFA05F21643022FC4F88861C0F8083174
S214401A10E6D1D4F88C311A43C4F88C21E0E706F5B9
S214401A20A674C6F84841B8E7441B40006913400016
S214401A3038B5074C0023054608462360FEF792FE5D
S214401A40431C00D038BD2368002BFBD02B6038BD2C
S214401A50800A002070B50C46054631B110B1836B44
S214401A60002B2FD0B4F90C300BB9002070BD28469F
S214401A702146FFF785FAE36A064633B12846E16910
S214401A8098470028B8BF4FF0FF36A3891B061CD4E2
S214401A90216B41B104F14003994202D02846FFF73A
S214401AA06FFB00232363616C21B12846FFF768FB78
S214401AB000236364FFF7FAFA0023A381FFF7F8FADE
S214401AC0304670BDFFF778FACCE728462169FFF725
S214401AD057FBDDE7024B01461868FFF7BBBF00BF68
S214401AE0C804002070B5084C064600250846114636
S214401AF01A462560FEF73AFE431C00D070BD2368A8
S214401B00002BFBD0336070BD800A002070B5084CB7
S214401B1006460025084611461A462560FEF72CFB69
S214401B20431C00D070BD2368002BFBD0336070BDD3
S214401B30800A0020504B53543030303000000000B4
S214401B4043000000A0000020F8B500BFF8BC08BC69
S214401B509E4670470D0E4000E5004000F8B500BFB9
S210401B60F8BC08BC9E467047C100400020
S214401B6CBFF35F8F0138FBD1704700BF00093D00C3
S214401B7C41542B5752584143544956453D310D0A12
S214401B8C41542B57413D534737385F41502C2C31ED
S214401B9C310D0A0041542B574D3D320D0A000000C2
S214401BAC41542B44484350535256523D310D0A0033
S214401BBC41542B4E5345543D3139322E3136382E06
S214401BCC312E37382C3235352E3235352E3235359A
S214401BDC2E302C3139322E3136382E312E37380DB8
S214401BEC0A00000041542B4E535544503D34383572
S214401BFC37380D0A415445300D0A000000000000ED
S214401C0C000000008C030020F40300205C0400203D
S214401C1C0000000000000000000000000000000073
S214401C2C0000000000000000000000000000000063
S214401C3C00000000401B40000000000000000000B8
S214401C4C0000000000000000000000000000000043
S214401C5C0000000000000000000000000000000033
S214401C6C0000000000000000000000000000000023
S214401C7C0000000000000000000000000000000013
S214401C8C0000000000000000000000000000000003
S214401C9C00000000000000000000000000000000F3
S214401CAC00000000000000000100000000000000E2
S214401CBC0E33CDAB34126DE6ECDE05000B000000A7
S214401CCC00000000000000000000000000000000C3
S214401CDC00000000000000000000000000000000B3
S214401CEC00000000000000000000000000000000A3
S214401CFC0000000000000000000000000000000093
S21440202C0000000000000000A0000020000000009F
S21440203C00000000CC040020CC040020D404002077
S21440204CD4040020DC040020DC040020E40400203F
S21440205CE4040020EC040020EC040020F4040020EF
S21440206CF4040020FC040020FC040020040500209E
S21440207C040500200C0500200C050020140500204B
S21440208C140500201C0500201C05002024050020FB
S21440209C240500202C0500202C05002034050020AB
S2144020AC340500203C0500203C050020440500205B
S2144020BC440500204C0500204C050020540500200B
S2144020CC540500205C0500205C05002064050020BB
S2144020DC640500206C0500206C050020740500206B
S2144020EC740500207C0500207C050020840500201B
S2144020FC840500208C0500208C05002094050020CB
S21440210C940500209C0500209C050020A40500207A
S21440211CA4050020AC050020AC050020B40500202A
S21440212CB4050020BC050020BC050020C4050020DA
S21440213CC4050020CC050020CC050020D40500208A
S21440214CD4050020DC050020DC050020E40500203A
S21440215CE4050020EC050020EC050020F4050020EA
S21440216CF4050020FC050020FC0500200406002099
S21440217C040600200C0600200C0600201406002046
S21440218C140600201C0600201C06002024060020F6
S21440219C240600202C0600202C06002034060020A6
S2144021AC340600203C0600203C0600204406002056
S2144021BC440600204C0600204C0600205406002006
S2144021CC540600205C0600205C06002064060020B6
S2144021DC640600206C0600206C0600207406002066
S2144021EC740600207C0600207C0600208406002016
S2144021FC840600208C0600208C06002094060020C6
S21440220C940600209C0600209C060020A406002075
S21440221CA4060020AC060020AC060020B406002025
S21440222CB4060020BC060020BC060020C4060020D5
S21440223CC4060020CC060020CC060020D406002085
S21440224CD4060020DC060020DC060020E406002035
S21440225CE4060020EC060020EC060020F4060020E5
S21440226CF4060020FC060020FC0600200407002094
S21440227C040700200C0700200C0700201407002041
S21440228C140700201C0700201C07002024070020F1
S21440229C240700202C0700202C07002034070020A1
S2144022AC340700203C0700203C0700204407002051
S2144022BC440700204C0700204C0700205407002001
S2144022CC540700205C0700205C07002064070020B1
S2144022DC640700206C0700206C0700207407002061
S2144022EC740700207C0700207C0700208407002011
S2144022FC840700208C0700208C07002094070020C1
S21440230C940700209C0700209C070020A407002070
S21440231CA4070020AC070020AC070020B407002020
S21440232CB4070020BC070020BC070020C4070020D0
S21440233CC4070020CC070020CC070020D407002080
S21440234CD4070020DC070020DC070020E407002030
S21440235CE4070020EC070020EC070020F4070020E0
S21440236CF4070020FC070020FC070020040800208F
S21440237C040800200C0800200C080020140800203C
S21440238C140800201C0800201C08002024080020EC
S21440239C240800202C0800202C080020340800209C
S2144023AC340800203C0800203C080020440800204C
S2144023BC440800204C0800204C08002054080020FC
S2144023CC540800205C0800205C08002064080020AC
S2144023DC640800206C0800206C080020740800205C
S2144023EC740800207C0800207C080020840800200C
S2144023FC840800208C0800208C08002094080020BC
S21440240C940800209C0800209C080020A40800206B
S21440241CA4080020AC080020AC080020B40800201B
S21440242CB4080020BC080020BC080020C4080020CB
S21040243CC408002000000200FFFFFFFF65
S80440052591
