S01900005347413130305F5350495F534F434B45542E737265632C
S113000049C0000064C0000062C0000060C000007D
S11300105EC000005CC000005AC0000058C0000070
S113002056C0000054C0000052C0000050C0000080
S11300304EC000004CC000004AC0000052C0000086
S113004046C0000044C0000042C0000040C00000A0
S11300503EC00000E0C000003AC0000038C000000C
S113006036C0000034C0000032C0000030C00000C0
S11300702EC000002CC000002AC0000028C00000D0
S113008026C0000024C0000022C0000020C00000E0
S11300901EC0000011241FBECFEFD0E1DEBFCDBFD4
S11300A011E0A0E0B1E0E4E4F0E100E00BBF02C045
S11300B007900D92AC35B107D9F721E0ACE5B1E07A
S11300C001C01D92AD3CB207E1F796D3B9C798CFF2
S11300D09091C00095FFFCCF8093C60080E090E033
S11300E008951F920F920FB60F9211242F938F939E
S11300F09F932FB7F8948FED91EB909385008093A5
S1130100840081E080935C0178942FBF9F918F914C
S11301102F910F900FBE0F901F901895E1E6F0E01D
S113012080E88083108211B812B814B815B817B8D3
S113013018B81AB81BB81DB81EB810BA11BA13BA39
S113014014BA089514BC16BC17BC1092800022E0A7
S1130150209381008FEB93E6909385008093840035
S113016010928700109286001092890010928800E5
S113017010928B0010928A0010928D0010928C00C5
S11301801092B6001092B0001092B2001092B30018
S11301901092900020939100109295001092940078
S11301A01092970010929600109299001092980065
S11301B010929B0010929A0010929D0010929C0045
S11301C01092690010926A001DBA10926E0081E0CC
S11301D080936F0010927000109271000895109235
S11301E0C5008FE08093C40082E08093C00086E065
S11301F08093C20088E98093C10089E491E09093E0
S1130200CA018093C90108959091C00095FFFCCF65
S11302108093C60008951F920F920FB60F92112477
S11302200BB60F922F933F938F939F93EF93FF936C
S11302302FB7F89480916301909164013091C600C6
S1130240FC01E354FE4F3083019690936401809344
S113025063012FBFFF91EF919F918F913F912F9158
S11302600F900BBE0F900FBE0F901F90189587E054
S113027084B98FE085B91DBC8EE58CBD08958EBD13
S11302800DB407FEFDCF08958EBD0DB407FEFDCF5E
S11302908EB50895CF93DF931F92CDB7DEB728981C
S11302A090E19A95F1F78F776983E9DF6981862F69
S11302B0E6DFE0E1EA95F1F7289A0F90DF91CF911C
S11302C00895CF93C62F682F89E0E4DF6C2F8AE06E
S11302D0E1DF6AE087E0DEDF8FE39FE10197F1F77A
S11302E000C0000060EA87E0CF91D4CFCF93C62F3F
S11302F0682F89E0CFDF6C2F8AE0CCDF6AE087E0EB
S1130300C9DF8FE39FE10197F1F700C0000060E2CD
S113031087E0CF91BFCFCF93DF931F92CDB7DEB7E6
S1130320289890E19A95F1F78068A9DF80E0ACDF26
S1130330898380E18A95F1F7289A89810F90DF916A
S1130340CF910895CF93DF931F92CDB7DEB7682F77
S113035089E0A0DF61EA87E09DDF85E18A95F1F716
S113036000008AE0D8DF898360EA87E093DF89812F
S11303700F90DF91CF910895CF93DF931F92CDB764
S1130380DEB7682F89E086DF61E287E083DF85E1FD
S11303908A95F1F700008AE0BEDF898360E287E096
S11303A079DF89810F90DF91CF9108959C01862F89
S11303B02115310521F02130310519F401C0C2CFD6
S11303C0DBCF80E00895CF93C62F803398F4682F55
S11303D089E060DF6C2F8AE05DDF62E887E05ADF46
S11303E08FE39FE10197F1F700C0000060EA87E026
S11303F0CF9150CFCF910895803308F477CF0895EB
S11304006091150181E05DDF6091140182E059DFA4
S11304106091130183E055DF6091120184E051DFA4
S11304206091110185E04DDF6091100186E049DFA4
S113043060910F0187E045DF60910E0188E041DFA4
S113044060910D0185E13DDF60910C0186E139DFAA
S113045060910B0187E135DF60910A0183E231DFAE
S11304606091090184E22DDF6091080185E229DFB2
S11304706091070189E225DF609106018AE221DFAC
S1130480609105018BE21DDF609104018CE219DFAC
S1130490609103018DE215DF609102018EE211DFAC
S11304A0609101018FE20DDF60E080E00ADF60EA25
S11304B087E0F0CE11B817B812B883E088B980E0AD
S11304C090E0089561E282E0E5DE60EF83E0E2DE41
S11304D061EA86E4DFCEAF92BF92CF92DF92EF92D1
S11304E0FF920F931F93CF93DF935C016B017A010B
S11304F0890180E010DF8093450181E00CDF809367
S1130500440182E008DF8093430183E004DF8093A9
S1130510420184E000DF8093410185E0FCDE8093AA
S1130520400186E0F8DE80933F0187E0F4DE8093AB
S11305303E0188E0F0DE80933D0189E0ECDE8093AB
S11305403C018AE0E8DE80933B018BE0E4DE8093AB
S11305503A018CE0E0DE809339018DE0DCDE8093AB
S113056038018EE0D8DE8093370186E1D4DE8093B3
S1130570360187E1D0DE8093350188E1CCDE8093BB
S1130580340189E1C8DE809333018AE1C4DE8093BB
S113059032018BE1C0DE809331018CE1BCDE8093BB
S11305A030018DE1B8DE80932F0180E4B4DE8093C6
S11305B02E0181E4B0DE80932D0182E4ACDE8093D1
S11305C02C0183E4A8DE80932B0184E4A4DE8093D1
S11305D02A0185E4A0DE8093290186E49CDE8093D1
S11305E0280187E498DE8093270189E494DE8093D0
S11305F026018AE490DE809325018BE48CDE8093CF
S113060024018CE488DE809323018DE484DE8093CE
S113061022018EE480DE809321018FE47CDE8093CE
S1130620200180E578DE80931F0181E574DE8093EC
S11306301E0182E570DE80931D0183E56CDE8093EC
S11306401C0184E568DE80931B0185E564DE8093EC
S11306501A0186E560DE8093190187E55CDE8093EC
S1130660180188E558DE8093170189E554DE8093EC
S1130670160180913E01813249F080913E01C1E032
S1130680D0E0803229F0C0E0D0E002C0C1E0D0E088
S113069060E0CE018BDE8093000161E0CE0186DE56
S11306A08093150162E0CE0181DE8093140163E042
S11306B0CE017CDE8093130164E0CE0177DE80936B
S11306C0120165E0CE0172DE8093110166E0CE0175
S11306D06DDE8093100167E0CE0168DE80930F0128
S11306E068E0CE0163DE80930E0165E1CE015EDE3B
S11306F080930D0166E1CE0159DE80930C0167E120
S1130700CE0154DE80930B0163E2CE014FDE809371
S11307100A0164E2CE014ADE8093090165E2CE015A
S113072045DE8093080169E2CE0140DE8093070133
S11307306AE2CE013BDE809306016BE2CE0136DE37
S1130740809305016CE2CE0131DE809304016DE2F9
S1130750CE012CDE809303016EE2CE0127DE80936E
S113076002016FE2CE0122DE8093010190913601F5
S113077080913501F92FE0E0E82BD501ED93FC934E
S11307803091340120913301932F80E0822BF601C4
S1130790918380833091320120913101932F80E045
S11307A0822BD7018D939C933091300120912F019E
S11307B0932F80E0822BF8019183808380910F0135
S11307C082958F708093480180910F018F70809380
S11307D0470180910E0182958F708093460180E0DD
S11307E090E0DF91CF911F910F91FF90EF90DF90F8
S11307F0CF90BF90AF90089591DCA4DCF0DC37DD9E
S11308002FEF81EE94E0215080409040E1F700C04A
S1130810000050DE2FEF83EF91E0215080409040A4
S1130820E1F700C0000078948091940090919500C5
S113083049DEC7E5D1E08091630190916401089796
S113084008F463C08091BD018F3A09F05AC08091C9
S1130850C4018F3509F055C08091BE0180936201B7
S11308608091BF01809361018091C00180936001F8
S11308708091C10180935F018091C20180935E01E8
S11308808091C30180935D01109264011092630111
S11308909091600180915F01981333C090915E0143
S11308A080915D0198132DC0909162018091610146
S11308B0981327C080916201833F89F028F4813F17
S11308C041F0823F11F513C0843F79F0883FE9F489
S11308D014C060915E0180916001DCDC16C06091FF
S11308E05E018091600188DD10C08ADD0EC06091D8
S11308F05E018091600167DD08C060E080E0F6DCA5
S113090004C0109264011092630180915C018823F9
S113091009F491CF10925C0180919400909195001C
S113092027E631E045EC51E065E671E089E691E0C7
S1130930D2DDDF93CF93DBD086E466DC8091450182
S113094063DC8091440160DC809143015DDC809133
S113095042015ADC8091410157DC8091400154DC12
S113096080913F0151DC80913E014EDC80913D013C
S11309704BDC80913C0148DC80913B0145DC80915B
S11309803A0142DC809139013FDC809138013CDC42
S11309908091370139DC8091360136DC8091350154
S11309A033DC8091340130DC809133012DDC809183
S11309B032012ADC8091310127DC8091300124DC72
S11309C080912F0121DC80912E011EDC80912D016C
S11309D01BDC80912C0118DC80912B0115DC8091AB
S11309E02A0112DC809129010FDC809128010CDCA2
S11309F08091270109DC8091260106DC8091250184
S1130A0003DC8091240100DC80912301FDDB8091D3
S1130A102201FADB80912101F7DB80912001F4DBD4
S1130A2080911F01F1DB80911E01EEDB80911D019D
S1130A30EBDB80911C01E8DB80911B01E5DB8091FD
S1130A401A01E2DB80911901DFDB80911801DCDB04
S1130A5080911701D9DB80911601D6DB80911501B5
S1130A60D3DB80911401D0DB80911301CDDB809125
S1130A701201CADB80911101C7DB80911001C4DB34
S1130A8080910F01C1DB80910E01BEDB80910D01CD
S1130A90BBDB80910C01B8DB80910B01B5DB80914D
S1130AA00A01B2DB80910901AFDB80910801ACDB64
S1130AB080910701A9DB80910601A6DB80910501E5
S1130AC0A3DB80910401A0DB809103019DDB809175
S1130AD002019ADB8091010197DB8091000194DB94
S1130AE08DE092DB8AE090DB0F900F90A4CECF9341
S1130AF0DF93CDB7DEB7FE01359661917191AF01F9
S1130B008091C9019091CA0103D0DF91CF910895DA
S1130B102F923F924F925F926F927F928F929F9209
S1130B20AF92BF92CF92DF92EF92FF920F931F93F7
S1130B30CF93DF93CDB7DEB72C970FB6F894DEBF13
S1130B400FBECDBF7C016B018A01FC0117821682A6
S1130B50838181FFB9C188248394912C8C0E9D1EBE
S1130B60F7019381F60193FD859193FF81916F01C4
S1130B70882309F4A5C1853239F493FD859193FF47
S1130B8081916F01853221F4B70190E0CFD1E8CF94
S1130B90512C312C20E02032A8F48B3261F028F45F
S1130BA0803251F0833271F40BC08D3239F08033CE
S1130BB049F4216028C02260246025C0286023C035
S1130BC0206121C027FD27C0382F30533A3078F4F4
S1130BD026FF06C0FAE05F9E300D1124532E13C089
S1130BE08AE0389E300D1124332E20620CC08E32E0
S1130BF021F426FD65C1206406C08C3611F42068FA
S1130C0002C0883641F4F60193FD859193FF8191EA
S1130C106F018111C0CF982F9554933018F09052E2
S1130C20933028F40C5F1F4FFFE3F9830DC0833624
S1130C3031F0833771F0833509F05AC022C0F801CE
S1130C40808189830E5F1F4F44244394512C5401A7
S1130C5014C03801F2E06F0E711CF801A080B1805D
S1130C6026FF03C0652D70E002C06FEF7FEFC50162
S1130C702C8751D12C0183012C856FE7262E22224B
S1130C8017C03801F2E06F0E711CF801A080B1802A
S1130C9026FF03C0652D70E002C06FEF7FEFC50132
S1130CA02C872ED12C012C8550E8252E222A830155
S1130CB023FC1AC005C0B70180E290E037D13A9412
S1130CC0832D90E048165906B0F30EC0F50127FCB9
S1130CD0859127FE81915F01B70190E027D1311002
S1130CE03A94F1E04F1A51084114510479F7E5C0E0
S1130CF0843611F0893639F5F80127FF07C0608181
S1130D007181828193810C5F1F4F08C06081718162
S1130D10882777FD8095982F0E5F1F4F4FE6B42EDE
S1130D20B22297FF09C090958095709561957F4F89
S1130D308F4F9F4FF0E8BF2A2AE030E0A40122D170
S1130D40A82EA81842C0853731F43FEEB32EB22244
S1130D502AE030E024C099EFB92EB2228F36B9F0E0
S1130D6020F4883509F0ACC00DC0803721F08837F5
S1130D7009F0A6C002C020E1B22AB4FE0BC084E090
S1130D80B82A08C024FF09C0E6E0BE2A06C028E04D
S1130D9030E005C020E130E002C020E132E0F8019B
S1130DA0B7FE07C060817181828193810C5F1F4F00
S1130DB006C06081718180E090E00E5F1F4FA40146
S1130DC0E1D0A82EA818FFE7BF22B6FE0BC02B2D3A
S1130DD02E7FA51450F4B4FE0AC0B2FC08C02B2D1B
S1130DE02E7E05C07A2C2B2D03C07A2C01C0752CC5
S1130DF024FF0DC0FE01EA0DF11D8081803311F442
S1130E00297E09C022FF06C07394739404C0822F04
S1130E10867809F0739423FD13C020FF0EC05A2C6A
S1130E20731458F4530C5718732C07C0B70180E29D
S1130E3090E02C877BD073942C857314B8F304C092
S1130E40731410F4371801C0312C24FF11C0B701FA
S1130E5080E390E02C876AD02C8522FF1CC021FF00
S1130E6003C088E590E002C088E790E0B7010CC0B9
S1130E70822F867881F021FD02C080E201C08BE2DE
S1130E8027FD8DE2B70190E051D005C0B70180E3A2
S1130E9090E04CD05A94A514C8F3AA94F401EA0D36
S1130EA0F11DB701808190E041D0A110F6CF05C0BB
S1130EB0B70180E290E03AD03A943110F9CF50CEA5
S1130EC0F7012681378102C02FEF3FEFC9012C962D
S1130ED00FB6F894DEBF0FBECDBFDF91CF911F9147
S1130EE00F91FF90EF90DF90CF90BF90AF909F90C5
S1130EF08F907F906F905F904F903F902F900895C8
S1130F00FC010590615070400110D8F780959095D0
S1130F108E0F9F1F0895FC016150704001900110D5
S1130F20D8F7809590958E0F9F1F08950F931F9368
S1130F30CF93DF938C01EB018B8181FD03C00FEF15
S1130F401FEF1AC082FF0DC02E813F818C819D81CD
S1130F502817390764F4E881F9810193F983E88358
S1130F6006C0E885F985802F0995892B41F78E8184
S1130F709F8101969F838E83C801DF91CF911F913A
S1130F800F910895FA01AA27283051F1203181F1F7
S1130F90E8946F936E7F6E5F7F4F8F4F9F4FAF4F7D
S1130FA0B1E03ED0B4E03CD0670F781F891F9A1F90
S1130FB0A11D680F791F8A1F911DA11D6A0F711D44
S1130FC0811D911DA11D20D009F468943F912AE050
S1130FD0269F11243019305D3193DEF6CF01089538
S1130FE0462F4770405D4193B3E00FD0C9F7F6CF69
S1130FF0462F4F70405D4A3318F0495D31FD405231
S1131000419302D0A9F7EACFB4E0A69597958795C6
S113101077956795BA95C9F70097610571050895A5
S11310209B01AC010A2E0694579547953795279551
S1131030BA95C9F7620F731F841F951FA01D0895E9
S1071040F894FFCF4E
S1131044FFFFFFFFFFFFFFFFFFFFFFFFFFFFFFFFA8
S1131054FFFFFFFFFFFFFFFFFFFFFFFFFFFFFFFF98
S1131064FFFFFFFFFFFFFFFFFFFFFFFFFFFFFFFF88
S1131074FFFFFFFFFFFFFFFFFFFFFFFFFFFFFFFF78
S1131084FFFFFFFFFFFFFFFFFF000000030000005E
S10F109400680000000000504B535400A2
S9030000FC
