S01900005347413130305F5350495F534F434B45542E737265632C
S113000049C0000064C0000062C0000060C000007D
S11300105EC000005CC000005AC0000058C0000070
S113002056C0000054C0000052C0000050C0000080
S11300304EC000004CC000004AC0000052C0000086
S113004046C0000044C0000042C0000040C00000A0
S11300503EC00000E7C000003AC0000038C0000005
S113006036C0000034C0000032C0000030C00000C0
S11300702EC000002CC000002AC0000028C00000D0
S113008026C0000024C0000022C0000020C00000E0
S11300901EC0000011241FBECFEFD0E1DEBFCDBFD4
S11300A011E0A0E0B1E0E6EAFEE000E00BBF02C030
S11300B007900D92A036B107D9F721E0A0E6B1E090
S11300C001C01D92AD3CB207E1F7E8D2EAC698CF71
S11300D09091C00095FFFCCF8093C60080E090E033
S11300E008951F920F920FB60F9211242F938F939E
S11300F09F932FB7F8948FED91EB909385008093A5
S1130100840081E08093600178942FBF9F918F9148
S11301102F910F900FBE0F901F90189590E002C082
S113012000009F5F9813FCCF0895E1E6F0E080E8BB
S11301308083108211B812B814B815B817B818B85B
S11301401AB81BB81DB81EB810BA11BA13BA14BA2B
S1130150089514BC16BC17BC1092800022E02093B2
S113016081008FEB93E69093850080938400109236
S113017087001092860010928900109288001092D5
S11301808B0010928A0010928D0010928C001092B5
S1130190B6001092B0001092B2001092B300109208
S11301A09000209391001092950010929400109268
S11301B09700109296001092990010929800109255
S11301C09B0010929A0010929D0010929C00109235
S11301D0690010926A001DBA10926E0081E080934B
S11301E06F00109270001092710008951092C50073
S11301F08FE08093C40082E08093C00086E0809307
S1130200C20088E98093C1008DE491E09093CA0113
S11302108093C90108959091C00095FFFCCF80930D
S1130220C60008951F920F920FB60F9211240BB6B9
S11302300F922F933F938F939F93EF93FF932FB737
S1130240F89480916501909166013091C600FC019B
S1130250E154FE4F308301969093660180936501CB
S11302602FBFFF91EF919F918F913F912F910F900D
S11302700BBE0F900FBE0F901F90189511B817B8B2
S113028012B883E088B980E090E0089586E084B9EC
S113029087E085B908950000000008952A98FBDFDF
S11302A029980895299AF7DF2A9A08952A9AF3DF5C
S11302B0299AF1DF2A98EFDF299808952298EBDF35
S11302C0299AE9DF83B12998229A82FB882780F949
S11302D00895CF932298DFDF299ADDDFC3B1DBDFF6
S11302E02998C2FB882780F9CF910895299AD3DFF2
S11302F02998D1DF2A9808951F93CF93DF931F92F3
S1130300CDB7DEB718E087FF02C02A9A01C02A9849
S11303108983C1DF299ABFDF2998BDDF8981880FCE
S1130320115089F70F90DF91CF911F910895CF93CA
S1130330DF932298D8E0C0E0299AADDF8C2F880F94
S1130340C3B1C2FBCC27C0F9C82B2998A4DFA3DF13
S1130350D15091F72A9A229A8C2FDF91CF91089548
S11303601F93CF93DF931F92CDB7DEB7182F698306
S113037095DF88ECC1DF88E2D1DEA0DF812FBCDF0E
S113038088E2CCDE9BDF6981862FB6DF88E2C6DE99
S113039095DF0F90DF91CF911F9184CF1F93CF935F
S11303A0DF931F92CDB7DEB7182F78DF88ECA4DF78
S11303B088E2B4DE83DF812F9FDF88E2AFDE7EDF59
S11303C075DF89EC99DF88E2A9DE83DF88E2A6DEA7
S11303D0AEDF89838BDF66DF89810F90DF91CF9158
S11303E01F910895CF93DF931F92CDB7DEB7D6DF69
S11303F0898389810F90DF91CF9108950F931F9383
S1130400CF93DF93EC018B0181E0ECDF80934C010F
S113041082E0E8DF80934B0183E0E4DF80934A01CC
S113042084E0E0DF8093490185E0DCDF80934801CC
S113043086E0D8DF8093470187E0D4DF80934601CC
S113044088E0D0DF8093450189E0CCDF80934401CC
S11304508AE0C8DF809343018BE0C4DF80934201CC
S11304608CE0C0DF809341018FE0BCDF80934001CA
S113047080E1B8DF80933F0181E1B4DF80933E01E6
S113048082E1B0DF80933D0183E1ACDF80933C01E6
S113049084E1A8DF80933B0185E1A4DF80933A01E6
S11304A086E1A0DF8093390187E19CDF80933801E6
S11304B088E198DF8093370189E194DF80933601E6
S11304C08AE190DF809335018BE18CDF80933401E6
S11304D08CE188DF809333018DE184DF80933201E6
S11304E08EE180DF809331018FE17CDF80933001E6
S11304F083E378DF80932F0184E374DF80932E01FC
S113050085E370DF80932D0186E36CDF80932C01FB
S113051087E368DF80932B0188E364DF80932A01FB
S113052089E360DF809329018AE35CDF80932801FB
S11305308BE358DF809327018CE354DF80932601FB
S11305408DE350DF809325018EE34CDF80932401FB
S11305508FE348DF8093230180E444DF809322010A
S113056081E440DF8093210182E43CDF8093200119
S113057083E438DF80931F0184E434DF80931E0119
S11305808CE430DF80931D018DE42CDF80931C010B
S11305908EE428DF80931B018FE424DF80931A010B
S11305A080E520DF8093190181E51CDF8093180129
S11305B082E518DF8093170183E514DF8093160129
S11305C084E510DF8093150185E50CDF8093140129
S11305D086E508DF8093130187E504DF8093120129
S11305E088E500DF8093110189E5FCDE809310012A
S11305F08AE5F8DE80930F018BE5F4DE80930E012B
S11306008CE5F0DE80930D018DE5ECDE80930C012A
S11306108EE5E8DE80930B018FE5E4DE80930A012A
S113062080E6E0DE8093090181E6DCDE8093080148
S113063082E6D8DE8093070183E6D4DE8093060148
S113064084E6D0DE8093050185E6CCDE8093040148
S113065080E7C8DE8093030181E7C4DE8093020152
S113066080913D01382F20E080913C01282B398373
S1130670288380913B0180913A0120913901922F86
S113068080E020913801822BF8019183808380E0FF
S113069090E0DF91CF911F910F91089546DD59DDD0
S11306A0A5DDF4DD2FEF81EE94E0215080409040F1
S11306B0E1F700C00000E2DD2FEF83EF91E021506D
S11306C080409040E1F700C000007894809194004D
S11306D09091950081E08093010180930001CBE526
S11306E0D1E08091650190916601069770F1809147
S11306F0BF018F3A31F58091C4018F3511F5809196
S1130700C001809364018091C10180936301809151
S1130710C201809362018091C301809361011092B0
S113072066011092650180916101809300018091BE
S11307306401813F51F4609162018091630110DE94
S113074004C01092660110926501809160018823B3
S113075041F210926001809194009091950029E6F5
S113076031E045EC51E067E671E08BE691E046DE6E
S1130770DF93CF93EDD08BE44EDD809101014BDD0F
S113078080914C0148DD80914B0145DD80914A0107
S113079042DD809149013FDD809148013CDD80913B
S11307A0470139DD8091460136DD8091450133DD15
S11307B08091440130DD809143012DDD809142011F
S11307C02ADD8091410127DD8091400124DD809163
S11307D03F0121DD80913E011EDD80913D011BDD45
S11307E080913C0118DD80913B0115DD80913A0137
S11307F012DD809139010FDD809138010CDD80918B
S1130800370109DD8091360106DD8091350103DD74
S11308108091340100DD80913301FDDC809132014F
S1130820FADC80913101F7DC80913001F4DC8091B5
S11308302F01F1DC80912E01EEDC80912D01EBDCA7
S113084080912C01E8DC80912B01E5DC80912A0168
S1130850E2DC80912901DFDC80912801DCDC8091DD
S11308602701D9DC80912601D6DC80912501D3DCD7
S113087080912401D0DC80912301CDDC8091220180
S1130880CADC80912101C7DC80912001C4DC809105
S11308901F01C1DC80911E01BEDC80911D01BBDC07
S11308A080911C01B8DC80911B01B5DC80911A0198
S11308B0B2DC80911901AFDC80911801ACDC80912D
S11308C01701A9DC80911601A6DC80911501A3DC37
S11308D080911401A0DC809113019DDC80911201B0
S11308E09ADC8091110197DC8091100194DC809155
S11308F00F0191DC80910E018EDC80910D018BDC67
S113090080910C0188DC80910B0185DC80910A01C7
S113091082DC809109017FDC809108017CDC80917C
S1130920070179DC8091060176DC8091050173DC96
S11309308091040170DC809103016DDC80910201DF
S11309406ADC8DE068DC8AE066DC0F900F90C9CE2B
S1130950CF93DF93CDB7DEB7FE01359661917191E8
S1130960AF018091C9019091CA0103D0DF91CF9169
S113097008952F923F924F925F926F927F928F923F
S11309809F92AF92BF92CF92DF92EF92FF920F931A
S11309901F93CF93DF93CDB7DEB72C970FB6F894A0
S11309A0DEBF0FBECDBF7C016B018A01FC01178243
S11309B01682838181FFB9C188248394912C8C0E83
S11309C09D1EF7019381F60193FD859193FF81911B
S11309D06F01882309F4A5C1853239F493FD85910B
S11309E093FF81916F01853221F4B70190E0CFD15B
S11309F0E8CF512C312C20E02032A8F48B3261F066
S1130A0028F4803251F0833271F40BC08D3239F006
S1130A10803349F4216028C02260246025C0286006
S1130A2023C0206121C027FD27C0382F30533A301E
S1130A3078F426FF06C0FAE05F9E300D1124532E91
S1130A4013C08AE0389E300D1124332E20620CC06E
S1130A508E3221F426FD65C1206406C08C3611F463
S1130A60206802C0883641F4F60193FD859193FF16
S1130A7081916F018111C0CF982F9554933018F054
S1130A809052933028F40C5F1F4FFFE3F9830DC09D
S1130A90833631F0833771F0833509F05AC022C0B0
S1130AA0F801808189830E5F1F4F44244394512CA5
S1130AB0540114C03801F2E06F0E711CF801A080DB
S1130AC0B18026FF03C0652D70E002C06FEF7FEF99
S1130AD0C5012C8751D12C0183012C856FE7262E6B
S1130AE0222217C03801F2E06F0E711CF801A080B9
S1130AF0B18026FF03C0652D70E002C06FEF7FEF69
S1130B00C5012C872ED12C012C8550E8252E222AB4
S1130B10830123FC1AC005C0B70180E290E037D1FD
S1130B203A94832D90E048165906B0F30EC0F501AF
S1130B3027FC859127FE81915F01B70190E027D1C1
S1130B4031103A94F1E04F1A51084114510479F7E5
S1130B50E5C0843611F0893639F5F80127FF07C05E
S1130B6060817181828193810C5F1F4F08C0608115
S1130B707181882777FD8095982F0E5F1F4F4FE670
S1130B80B42EB22297FF09C0909580957095619517
S1130B907F4F8F4F9F4FF0E8BF2A2AE030E0A40137
S1130BA022D1A82EA81842C0853731F43FEEB32EC7
S1130BB0B2222AE030E024C099EFB92EB2228F3657
S1130BC0B9F020F4883509F0ACC00DC0803721F0AD
S1130BD0883709F0A6C002C020E1B22AB4FE0BC0D7
S1130BE084E0B82A08C024FF09C0E6E0BE2A06C093
S1130BF028E030E005C020E130E002C020E132E02E
S1130C00F801B7FE07C060817181828193810C5F16
S1130C101F4F06C06081718180E090E00E5F1F4F1E
S1130C20A401E1D0A82EA818FFE7BF22B6FE0BC08E
S1130C302B2D2E7FA51450F4B4FE0AC0B2FC08C0BC
S1130C402B2D2E7E05C07A2C2B2D03C07A2C01C0AF
S1130C50752C24FF0DC0FE01EA0DF11D8081803347
S1130C6011F4297E09C022FF06C07394739404C052
S1130C70822F867809F0739423FD13C020FF0EC0E1
S1130C805A2C731458F4530C5718732C07C0B7011B
S1130C9080E290E02C877BD073942C857314B8F396
S1130CA004C0731410F4371801C0312C24FF11C090
S1130CB0B70180E390E02C876AD02C8522FF1CC00A
S1130CC021FF03C088E590E002C088E790E0B70107
S1130CD00CC0822F867881F021FD02C080E201C021
S1130CE08BE227FD8DE2B70190E051D005C0B7013A
S1130CF080E390E04CD05A94A514C8F3AA94F4016C
S1130D00EA0DF11DB701808190E041D0A110F6CF2A
S1130D1005C0B70180E290E03AD03A943110F9CF9F
S1130D2050CEF7012681378102C02FEF3FEFC90172
S1130D302C960FB6F894DEBF0FBECDBFDF91CF91D6
S1130D401F910F91FF90EF90DF90CF90BF90AF90E5
S1130D509F908F907F906F905F904F903F902F90D7
S1130D600895FC010590615070400110D8F78095FA
S1130D7090958E0F9F1F0895FC0161507040019063
S1130D800110D8F7809590958E0F9F1F08950F93AB
S1130D901F93CF93DF938C01EB018B8181FD03C003
S1130DA00FEF1FEF1AC082FF0DC02E813F818C818F
S1130DB09D812817390764F4E881F9810193F98347
S1130DC0E88306C0E885F985802F0995892B41F7CA
S1130DD08E819F8101969F838E83C801DF91CF917D
S1130DE01F910F910895FA01AA27283051F120315B
S1130DF081F1E8946F936E7F6E5F7F4F8F4F9F4FAB
S1130E00AF4FB1E03ED0B4E03CD0670F781F891FEC
S1130E109A1FA11D680F791F8A1F911DA11D6A0FBA
S1130E20711D811D911DA11D20D009F468943F916D
S1130E302AE0269F11243019305D3193DEF6CF016C
S1130E400895462F4770405D4193B3E00FD0C9F732
S1130E50F6CF462F4F70405D4A3318F0495D31FD9F
S1130E604052419302D0A9F7EACFB4E0A6959795F2
S1130E70879577956795BA95C9F7009761057105C8
S1130E8008959B01AC010A2E069457954795379512
S1130E902795BA95C9F7620F731F841F951FA01D6C
S1090EA00895F894FFCF51
S1130EA60101FFFFFFFFFFFFFFFFFFFFFFFFFFFF44
S1130EB6FFFFFFFFFFFFFFFFFFFFFFFFFFFFFFFF38
S1130EC6FFFFFFFFFFFFFFFFFFFFFFFFFFFFFFFF28
S1130ED6FFFFFFFFFFFFFFFFFFFFFFFFFFFFFFFF18
S1130EE6FFFFFFFFFFFFFFFFFFFFFFFFFF00000005
S1130EF60300000000680000000000504B5354003B
S9030000FC
