S0170000434C4F434B5F4558414D504C4531312E73726563D4
S21440000050340020210340001D0340001D034000E3
S2144000101D0340001D0340001D034000000000007B
S2144000200000000000000000000000001D0340002B
S2144000301D034000000000001D0340002D05400049
S2144000401D0340001D0340001D0340001D034000EB
S2144000501D0340001D0340001D034000000000003B
S2144000601D0340001D0340001D0340001D034000CB
S2144000701D034000000000001D034000000000007B
S2144000801D03400000000000000000001D0340006B
S2144000901D0340001D0340001D0340001D0340009B
S2144000A01D0340001D03400000000000000000004B
S2144000B0000000001D034000000000001D0340003B
S2144000C010B5054C237833B9044B13B10448AFF34D
S2144000D000800123237010BD300400200000000083
S2144000E03C07400008B5064B1BB106480649AFF32F
S2144000F000800648036813B1054B03B1984708BD16
S214400100000000003C074000340400203C0740004C
S2144001100000000010B50E480E4B984710200E4BBE
S21440012098470E4CA0470028FCD00D4B98470D4AE8
S2144001300D4B9A620D4CA0470028FCD010200C4B6B
S21440014098470C4B98470248024B984710BD00BF53
S21440015000E1F505CD04400075024000C1024000B4
S214400160D1024000013F182000040E40E10240004A
S21440017011024000BD03400010B54FF40042214B31
S2144001805A600B20204CA0470C20A0471F4B4FF432
S21440019080121A61C3F8A0201A634FF400221A6135
S2144001A0C3F8A0201A634FF480221A61C3F8A02037
S2144001B01A634FF080425A61C3F8A0205A66C3F8CB
S2144001C090205A655A62C3F880201A6F22F0804207
S2144001D01A675A6F22F080425A674FF080621A635D
S2144001E01A61C3F8A0204FF000621A631A61C3F880
S2144001F0A02003F5806308221A631A61C3F8A02082
S21440020010BD00BF50140E40F1024000000E0E40DC
S214400210174B1A6B22F07002104318639B6E13F054
S214400220080F09D14FF40063114901E0013B19D092
S2144002308A6E12F0080FF9D00D4B1A6B22F00302AB
S21440024042F002021A63986E10F008000CD14FF488
S2144002500063074901E0013B08D08A6E12F0080FA0
S214400260F9D0704701207047002070470120704742
S21440027000040E4011490A6A42F45C1242F0080239
S2144002800A620A46936E13F4003FFBD00B4A136A89
S21440029023F45C1323F0700343F45C1303431362AC
S2144002A0936E13F4003FFBD0044A136A23F09B730B
S2144002B023F4803343F45C131362704700040E400B
S2144002C0024B986E00F48030704700BF00040E402A
S2144002D04FF00052014B9A62704700BF00040E4038
S2144002E0024B986E00F00200704700BF00040E40BC
S2144002F01F280DD8084B9A69012383401A40934221
S21440030008D0012303FA00F0034B18610020704721
S214400310012070470020704700040E40FEE700BFF3
S21440032010B5194B194A9A4203D0194B164A9A42AD
S21440033004D3184B184A9A420FD31AE0174B184C5E
S214400340E41A24F00304043400230F480F495A5893
S2144003501A500433A342FAD1EBE7124B1249C91A9A
S21440036021F003011A1D1144002243F8042F8B424A
S214400370FBD10E4B0E4A22F07F029A600D4B9847F7
S2144003800D4B9847FEE700BF000000203C074000AA
S21440039030040020500400203004002004000020D8
S2144003A0330400202C0400204B04002000ED00E025
S2144003B000004000C90540003D0540003C4B1B6B1B
S2144003C003F00303012B0FD013B1022B29D057E0C3
S2144003D0384B5B6913F0800F14BF4FF400424FF464
S2144003E0FA42354B1A604BE0314B1B6A13F0807F64
S2144003F003D0324A304B1A6042E0314A2E4B1A60E4
S2144004002B4B1B6A03F07003102B02D0202B04D01A
S21440041036E02C4A284B1A6032E0284A264B1A60AF
S2144004202EE0234B1B6A13F0807F03D0234A224BD7
S2144004301A6012E0224A204B1A601D4B1B6A03F0DA
S2144004407003102B02D0202B04D006E01D4A1A4B16
S2144004501A6002E0194A184B1A60154B1B6B03F0E2
S2144004600303022B0CD1124B986A996A124BC0F3C5
S2144004700A401A6800FB0222C9B2B2FBF1F21A60C7
S2144004800B4B1B6B03F07003702B07D10A4B1A689B
S2144004900D49A1FB020252081A607047044B196BC3
S2144004A0054BC1F302111A68CA401A60704700BF74
S2144004B000040E4010140E4000000020001BB70041
S2144004C000093D0000127A00ABAAAAAA0F4B984238
S2144004D004D84FF080620E4B1A6070470D4B98421E
S2144004E003D80D4A0A4B1A6070470C4B984203D803
S2144004F00B4A074B1A6070470A4B984294BF0A4A09
S2144005004FF00422024B1A60704700BFFF2C3101A7
S214400510000A0E40FF59620200010004FF86930362
S21440052000020004FFB3C40400030004024B1A6830
S21440053001321A60704700BF4C04002008B51B4BC0
S21440054098471B4B98471B4B1B4A5A60F0211B4A47
S21440055082F8231000229A6007221A6018484FF447
S2144005608016184B4FF400254FF48024C26B12F4CB
S214400570801F14BF4663066319681A68521AB2F59C
S214400580FA7FFAD3C26B12F4002F14BF456305639B
S21440059019681A68521AB2F5FA7FFAD3C26B12F487
S2144005A0802F14BF44630463E0E700BF150140009A
S2144005B07901400010E000E09F86010000ED00E079
S2144005C0000E0E404C04002070B50F4E0F4D761BAB
S2144005D0B61007D0043D0024013455F8043F984730
S2144005E0A642F9D10A4E0B4D761B00F095F8B61090
S2144005F008D0043D0024013455F8043F9847A642ED
S214400600F9D170BD70BD00BF2407400024074000EC
S2144006102C07400024074000024B13B1024800F06C
S21440062005B870470000000039064000014600202B
S2144006300246034600F018B838B5094D094C641B0D
S214400640A41018BF05EB840505D0013C55F8043DC1
S2144006509847002CF9D1BDE8384000F067B800BF95
S214400660380740003C074000F0B5274C2668D6F8CF
S214400670484185B00746002C41D065681F2D1EDDD9
S214400680224818B94FF0FF3005B0F0BD4FF4C8709F
S214400690039102920193AFF300800399029A019B63
S2144006A004460028EED0D6F8485125600020606009
S2144006B00546C6F84841C4F88801C4F88C013FB9DD
S2144006C0AB1C00200135656044F8231005B0F0BD32
S2144006D004EB85004FF0010CC0F88820D4F8886100
S2144006E00CFA05F21643022FC4F88861C0F80831A8
S2144006F0E6D1D4F88C311A43C4F88C21E0E706F5ED
S214400700A674C6F84841B8E7140740000000000049
S2144007104300000008000020F8B500BFF8BC08BC45
S2144007209E46704719064000E5004000F8B500BFF9
S210400730F8BC08BC9E467047C100400064
S21440073C00093D000000000000000000F40200200C
S21440074C5C030020C40300200000000000000000F2
S21440075C0000000000000000000000000000000048
S21440076C00000000000000000000000010074000E1
S21440077C0000000000000000000000000000000028
S21440078C0000000000000000000000000000000018
S21440079C0000000000000000000000000000000008
S2144007AC00000000000000000000000000000000F8
S2144007BC00000000000000000000000000000000E8
S2144007CC00000000000000000000000000000000D8
S2144007DC00000000000000000000000000000000C8
S2144007EC01000000000000000E33CDAB34126DE665
S2144007FCECDE05000B0000000000000000000000CE
S21440080C0000000000000000000000000000000097
S21440081C0000000000000000000000000000000087
S21440082C0000000000000000000000000000000077
S21440083C0000000000000000000000000000000067
S80440032197
